{
  "_format": "hh-sol-artifact-1",
  "contractName": "QAOVotingEngine",
  "sourceName": "contracts/QAOVotingEngine.sol",
  "abi": [
    {
      "inputs": [
        {
          "internalType": "address",
          "name": "qaoTokenAddr",
          "type": "address"
        },
        {
          "internalType": "address",
          "name": "rewardPool",
          "type": "address"
        }
      ],
      "stateMutability": "nonpayable",
      "type": "constructor"
    },
    {
      "anonymous": false,
      "inputs": [
        {
          "indexed": false,
          "internalType": "address",
          "name": "user",
          "type": "address"
        },
        {
          "indexed": false,
          "internalType": "uint256",
          "name": "voteId",
          "type": "uint256"
        },
        {
          "indexed": false,
          "internalType": "uint256",
          "name": "attendanceId",
          "type": "uint256"
        }
      ],
      "name": "AttendanceSubmitted",
      "type": "event"
    },
    {
      "anonymous": false,
      "inputs": [
        {
          "indexed": false,
          "internalType": "address",
          "name": "user",
          "type": "address"
        },
        {
          "indexed": false,
          "internalType": "uint256",
          "name": "voteId",
          "type": "uint256"
        },
        {
          "indexed": false,
          "internalType": "uint256",
          "name": "attendanceId",
          "type": "uint256"
        }
      ],
      "name": "AttendanceWithdrawn",
      "type": "event"
    },
    {
      "anonymous": false,
      "inputs": [
        {
          "indexed": true,
          "internalType": "address",
          "name": "previousOwner",
          "type": "address"
        },
        {
          "indexed": true,
          "internalType": "address",
          "name": "newOwner",
          "type": "address"
        }
      ],
      "name": "OwnershipTransferred",
      "type": "event"
    },
    {
      "anonymous": false,
      "inputs": [
        {
          "indexed": false,
          "internalType": "uint256",
          "name": "voteId",
          "type": "uint256"
        }
      ],
      "name": "QuorumReached",
      "type": "event"
    },
    {
      "anonymous": false,
      "inputs": [
        {
          "indexed": false,
          "internalType": "uint256",
          "name": "voteId",
          "type": "uint256"
        }
      ],
      "name": "StartOfVote",
      "type": "event"
    },
    {
      "inputs": [],
      "name": "BURN_PER_VOTE",
      "outputs": [
        {
          "internalType": "uint256",
          "name": "",
          "type": "uint256"
        }
      ],
      "stateMutability": "view",
      "type": "function"
    },
    {
      "inputs": [],
      "name": "INIT_VOTE_AMOUNT",
      "outputs": [
        {
          "internalType": "uint256",
          "name": "",
          "type": "uint256"
        }
      ],
      "stateMutability": "view",
      "type": "function"
    },
    {
      "inputs": [],
      "name": "REWARD_PER_VOTE",
      "outputs": [
        {
          "internalType": "uint256",
          "name": "",
          "type": "uint256"
        }
      ],
      "stateMutability": "view",
      "type": "function"
    },
    {
      "inputs": [],
      "name": "VOTE_MAX_TIME",
      "outputs": [
        {
          "internalType": "uint256",
          "name": "",
          "type": "uint256"
        }
      ],
      "stateMutability": "view",
      "type": "function"
    },
    {
      "inputs": [],
      "name": "VOTE_QUORUM",
      "outputs": [
        {
          "internalType": "uint256",
          "name": "",
          "type": "uint256"
        }
      ],
      "stateMutability": "view",
      "type": "function"
    },
    {
      "inputs": [
        {
          "internalType": "string",
          "name": "heading",
          "type": "string"
        },
        {
          "internalType": "string",
          "name": "description",
          "type": "string"
        }
      ],
      "name": "createVote",
      "outputs": [],
      "stateMutability": "nonpayable",
      "type": "function"
    },
    {
      "inputs": [
        {
          "internalType": "address",
          "name": "user",
          "type": "address"
        },
        {
          "internalType": "uint256",
          "name": "attendanceId",
          "type": "uint256"
        }
      ],
      "name": "getAttendance",
      "outputs": [
        {
          "internalType": "uint256",
          "name": "",
          "type": "uint256"
        },
        {
          "internalType": "uint256",
          "name": "",
          "type": "uint256"
        },
        {
          "internalType": "uint256",
          "name": "",
          "type": "uint256"
        },
        {
          "internalType": "uint8",
          "name": "",
          "type": "uint8"
        },
        {
          "internalType": "bool",
          "name": "",
          "type": "bool"
        },
        {
          "internalType": "bool",
          "name": "",
          "type": "bool"
        }
      ],
      "stateMutability": "view",
      "type": "function"
    },
    {
      "inputs": [
        {
          "internalType": "uint256",
          "name": "voteId",
          "type": "uint256"
        }
      ],
      "name": "getVote",
      "outputs": [
        {
          "internalType": "address",
          "name": "",
          "type": "address"
        },
        {
          "internalType": "uint256",
          "name": "",
          "type": "uint256"
        },
        {
          "internalType": "uint256",
          "name": "",
          "type": "uint256"
        },
        {
          "internalType": "uint256",
          "name": "",
          "type": "uint256"
        },
        {
          "internalType": "bool",
          "name": "",
          "type": "bool"
        },
        {
          "internalType": "string",
          "name": "",
          "type": "string"
        },
        {
          "internalType": "string",
          "name": "",
          "type": "string"
        }
      ],
      "stateMutability": "view",
      "type": "function"
    },
    {
      "inputs": [],
      "name": "owner",
      "outputs": [
        {
          "internalType": "address",
          "name": "",
          "type": "address"
        }
      ],
      "stateMutability": "view",
      "type": "function"
    },
    {
      "inputs": [],
      "name": "qaoToken",
      "outputs": [
        {
          "internalType": "address",
          "name": "",
          "type": "address"
        }
      ],
      "stateMutability": "view",
      "type": "function"
    },
    {
      "inputs": [],
      "name": "renounceOwnership",
      "outputs": [],
      "stateMutability": "nonpayable",
      "type": "function"
    },
    {
      "inputs": [],
      "name": "rewardPool",
      "outputs": [
        {
          "internalType": "address",
          "name": "",
          "type": "address"
        }
      ],
      "stateMutability": "view",
      "type": "function"
    },
    {
      "inputs": [
        {
          "internalType": "address",
          "name": "newPool",
          "type": "address"
        }
      ],
      "name": "setRewardPool",
      "outputs": [],
      "stateMutability": "nonpayable",
      "type": "function"
    },
    {
      "inputs": [
        {
          "internalType": "address",
          "name": "newOwner",
          "type": "address"
        }
      ],
      "name": "transferOwnership",
      "outputs": [],
      "stateMutability": "nonpayable",
      "type": "function"
    },
    {
      "inputs": [
        {
          "internalType": "uint256",
          "name": "voteId",
          "type": "uint256"
        },
        {
          "internalType": "uint256",
          "name": "tokenAmount",
          "type": "uint256"
        },
        {
          "internalType": "uint256",
          "name": "lockWeeks",
          "type": "uint256"
        },
        {
          "internalType": "uint8",
          "name": "lockOption",
          "type": "uint8"
        },
        {
          "internalType": "bool",
          "name": "position",
          "type": "bool"
        }
      ],
      "name": "vote",
      "outputs": [],
      "stateMutability": "nonpayable",
      "type": "function"
    },
    {
      "inputs": [
        {
          "internalType": "uint256",
          "name": "voteId",
          "type": "uint256"
        }
      ],
      "name": "voteIsActive",
      "outputs": [
        {
          "internalType": "bool",
          "name": "",
          "type": "bool"
        }
      ],
      "stateMutability": "view",
      "type": "function"
    },
    {
      "inputs": [
        {
          "internalType": "uint256",
          "name": "voteId",
          "type": "uint256"
        }
      ],
      "name": "voteSuccess",
      "outputs": [
        {
          "internalType": "bool",
          "name": "",
          "type": "bool"
        }
      ],
      "stateMutability": "view",
      "type": "function"
    },
    {
      "inputs": [
        {
          "internalType": "uint256",
          "name": "attendanceId",
          "type": "uint256"
        }
      ],
      "name": "withdrawFromVoteAttendance",
      "outputs": [],
      "stateMutability": "nonpayable",
      "type": "function"
    }
  ],
  "bytecode": "0x608060405260006003553480156200001657600080fd5b5060405162001ffe38038062001ffe8339810160408190526200003991620000f0565b6200004d620000476200007f565b62000083565b600180546001600160a01b039384166001600160a01b0319918216179091556002805492909316911617905562000127565b3390565b600080546001600160a01b038381166001600160a01b0319831681178455604051919092169283917f8be0079c531659141344cd1fd0a4f28419497f9722a3daafe3b4186f6b6457e09190a35050565b80516001600160a01b0381168114620000eb57600080fd5b919050565b6000806040838503121562000103578182fd5b6200010e83620000d3565b91506200011e60208401620000d3565b90509250929050565b611ec780620001376000396000f3fe608060405234801561001057600080fd5b50600436106101365760003560e01c80639de9ec6d116100b2578063b46cc4b111610081578063f2fde38b11610066578063f2fde38b14610257578063f4d7046814610217578063f65025001461026a57610136565b8063b46cc4b114610247578063c7761fab1461024f57610136565b80639de9ec6d14610204578063a1f847a814610217578063ae4b01401461021f578063b31c9ae81461022757610136565b80635a55c1f011610109578063715018a6116100ee578063715018a6146101e157806378238c37146101e95780638da5cb5b146101fc57610136565b80635a55c1f0146101a657806366666aa9146101cc57610136565b80632e57ce5c1461013b5780633b6103261461015057806340f5d5ba1461016e5780634c4f7ba514610193575b600080fd5b61014e61014936600461160d565b61027d565b005b610158610668565b6040516101659190611d92565b60405180910390f35b61018161017c3660046115c8565b610676565b60405161016596959493929190611d9b565b61014e6101a1366004611676565b610758565b6101b96101b4366004611676565b610a4b565b60405161016597969594939291906117a5565b6101d4610c47565b6040516101659190611733565b61014e610c56565b61014e6101f73660046115a7565b610ca1565b6101d4610d35565b61014e61021236600461168e565b610d44565b6101586112fa565b610158611305565b61023a610235366004611676565b61130c565b6040516101659190611801565b6101d4611360565b61015861136f565b61014e6102653660046115a7565b61137e565b61023a610278366004611676565b6113ef565b6001546001600160a01b03166323b872dd61029661144a565b3069d3c21bcecceda10000006040518463ffffffff1660e01b81526004016102c093929190611747565b602060405180830381600087803b1580156102da57600080fd5b505af11580156102ee573d6000803e3d6000fd5b505050506040513d601f19601f8201168201806040525081019061031291906115f1565b6103375760405162461bcd60e51b815260040161032e90611bd2565b60405180910390fd5b6040518060e0016040528061034a61144a565b6001600160a01b0316815260200142815260200169d3c21bcecceda100000081526020016000815260200160001515815260200185858080601f016020809104026020016040519081016040528093929190818152602001838380828437600092019190915250505090825250604080516020601f8601819004810282018101909252848152918101919085908590819084018382808284376000920182905250939094525050600380548252600460208181526040938490208651815473ffffffffffffffffffffffffffffffffffffffff19166001600160a01b039091161781558682015160018201559386015160028501556060860151928401929092556080850151908301805460ff191691151591909117905560a0840151805192935061047f92600585019291909101906114ab565b5060c0820151805161049b9160068401916020909101906114ab565b509050506000600560006104ad61144a565b6001600160a01b03166001600160a01b031681526020019081526020016000205490506040518060c00160405280600354815260200169d3c21bcecceda10000008152602001428152602001600160ff168152602001600115158152602001600015158152506006600061051f61144a565b6001600160a01b0316815260208082019290925260409081016000908120858252835281902083518155918301516001830155828101516002830155606083015160039283018054608086015160a0909601511515620100000262ff0000199615156101000261ff001960ff90951660ff1990931692909217939093161794909416179092555490517f507a8e8fbce2f5ba2315b491e49eec3047322605fe444d96358d6e1b9c4a39e4916105d391611d92565b60405180910390a17f3e1dddfe177f380d46ac580570ab6b8eacd173a2dd4c60fe3cf23d343117ef3861060461144a565b6003548360405161061793929190611784565b60405180910390a160035461062d906001611dca565b60035561063b816001611dca565b6005600061064761144a565b6001600160a01b031681526020810191909152604001600020555050505050565b69d3c21bcecceda100000081565b60008060008060008087878060056000846001600160a01b03166001600160a01b0316815260200190815260200160002054106106c55760405162461bcd60e51b815260040161032e90611b75565b505050506001600160a01b0395909516600090815260066020908152604080832096835295815290859020855160c08101875281548082526001830154938201849052600283015497820188905260039092015460ff808216606084018190526101008304821615156080850181905262010000909304909116151560a090930183905292999398509195509093509150565b61076061144a565b6001600160a01b038116600090815260056020526040902054829081116107995760405162461bcd60e51b815260040161032e90611b75565b6000600660006107a761144a565b6001600160a01b03168152602080820192909252604090810160009081208782528352819020815160c081018352815481526001820154938101939093526002810154918301919091526003015460ff80821660608401526101008204811615156080840152620100009091041615801560a083015290915061083c5760405162461bcd60e51b815260040161032e90611a38565b60608101518151602083015160ff83166108d157610859826113ef565b156108cc5783608001511561089c57600082815260046020526040902060020154610885908290611e21565b6000838152600460205260409020600201556108cc565b6000828152600460205260409020600301546108b9908290611e21565b6000838152600460205260409020600301555b610927565b8260ff1660011415610903576108e6826113ef565b156108cc5760405162461bcd60e51b815260040161032e90611a95565b83604001514210156109275760405162461bcd60e51b815260040161032e90611af2565b6001546001600160a01b031663a9059cbb61094061144a565b836040518363ffffffff1660e01b815260040161095e92919061176b565b602060405180830381600087803b15801561097857600080fd5b505af115801561098c573d6000803e3d6000fd5b505050506040513d601f19601f820116820180604052508101906109b091906115f1565b506001600660006109bf61144a565b6001600160a01b03168152602080820192909252604090810160009081208b825290925290206003018054911515620100000262ff0000199092169190911790557fdbc5bcba7a6c6cd07166e0a4442ff105b19d76a62ceaf6396da50742981b12b0610a2961144a565b8389604051610a3a93929190611784565b60405180910390a150505050505050565b600080600080600060608087600081118015610a6957506003548111155b610a855760405162461bcd60e51b815260040161032e90611d35565b6000898152600460208181526040808420815160e08101835281546001600160a01b03168152600182015493810193909352600281015491830191909152600381015460608301529182015460ff161515608082015260058201805491929160a084019190610af390611e38565b80601f0160208091040260200160405190810160405280929190818152602001828054610b1f90611e38565b8015610b6c5780601f10610b4157610100808354040283529160200191610b6c565b820191906000526020600020905b815481529060010190602001808311610b4f57829003601f168201915b50505050508152602001600682018054610b8590611e38565b80601f0160208091040260200160405190810160405280929190818152602001828054610bb190611e38565b8015610bfe5780601f10610bd357610100808354040283529160200191610bfe565b820191906000526020600020905b815481529060010190602001808311610be157829003601f168201915b5050505050815250509050806000015181602001518260400151836060015184608001518560a001518660c0015198509850985098509850985098505050919395979092949650565b6002546001600160a01b031690565b610c5e61144a565b6001600160a01b0316610c6f610d35565b6001600160a01b031614610c955760405162461bcd60e51b815260040161032e90611a03565b610c9f600061144e565b565b610ca961144a565b6001600160a01b0316610cba610d35565b6001600160a01b031614610ce05760405162461bcd60e51b815260040161032e90611a03565b6001600160a01b038116610d065760405162461bcd60e51b815260040161032e90611c55565b6002805473ffffffffffffffffffffffffffffffffffffffff19166001600160a01b0392909216919091179055565b6000546001600160a01b031690565b84600081118015610d5757506003548111155b610d735760405162461bcd60e51b815260040161032e90611d35565b610d7c866113ef565b610d985760405162461bcd60e51b815260040161032e906118c6565b6001546001600160a01b03166323b872dd610db161144a565b30886040518463ffffffff1660e01b8152600401610dd193929190611747565b602060405180830381600087803b158015610deb57600080fd5b505af1158015610dff573d6000803e3d6000fd5b505050506040513d601f19601f82011682018060405250810190610e2391906115f1565b610e3f5760405162461bcd60e51b815260040161032e90611980565b60066000610e4b61144a565b6001600160a01b031681526020808201929092526040908101600090812089825290925290206001015415610e925760405162461bcd60e51b815260040161032e90611923565b610208841115610eb45760405162461bcd60e51b815260040161032e90611cb2565b60028360ff161115610ed85760405162461bcd60e51b815260040161032e9061180c565b6000670de0b6b3a7640000610ef4662c68af0bb1400088611e02565b610efe9190611de2565b90506000670de0b6b3a7640000610f1c662c68af0bb1400089611e02565b610f269190611de2565b6001546040517f42966c680000000000000000000000000000000000000000000000000000000081529192506001600160a01b0316906342966c6890610f70908590600401611d92565b600060405180830381600087803b158015610f8a57600080fd5b505af1158015610f9e573d6000803e3d6000fd5b50506001546002546040517fa9059cbb0000000000000000000000000000000000000000000000000000000081526001600160a01b03928316945063a9059cbb9350610ff29290911690859060040161176b565b602060405180830381600087803b15801561100c57600080fd5b505af1158015611020573d6000803e3d6000fd5b505050506040513d601f19601f8201168201806040525081019061104491906115f1565b5060008560ff16600114156110565750425b8560ff166002141561107c5761106f8762093a80611e02565b6110799042611dca565b90505b60006005600061108a61144a565b6001600160a01b03166001600160a01b031681526020019081526020016000205490506040518060c001604052808b815260200184868c6110cb9190611e21565b6110d59190611e21565b81526020018381526020018860ff1681526020018715158152602001600015158152506006600061110461144a565b6001600160a01b03168152602080820192909252604090810160009081208582528352819020835181559183015160018301558201516002820155606082015160039091018054608084015160a0909401511515620100000262ff0000199415156101000261ff001960ff90951660ff19909316929092179390931617929092161790557f3e1dddfe177f380d46ac580570ab6b8eacd173a2dd4c60fe3cf23d343117ef386111b161144a565b8b836040516111c293929190611784565b60405180910390a16111d5816001611dca565b600560006111e161144a565b6001600160a01b0316815260208101919091526040016000205585156112355760008a81526004602052604090206002015461121e908a90611dca565b60008b815260046020526040902060020155611265565b60008a815260046020526040902060030154611252908a90611dca565b60008b8152600460205260409020600301555b60008a815260046020526040902060038101546002909101546a084595161401484a0000009161129491611dca565b106112ee5760008a81526004602081905260409182902001805460ff19166001179055517f878536ebf930768ad5274a079ba36028b128aeca4b9212fece414176c39e30f7906112e5908c90611d92565b60405180910390a15b50505050505050505050565b662c68af0bb1400081565b62093a8081565b60008160008111801561132157506003548111155b61133d5760405162461bcd60e51b815260040161032e90611d35565b600083815260046020526040902060038101546002909101541191505b50919050565b6001546001600160a01b031690565b6a084595161401484a00000081565b61138661144a565b6001600160a01b0316611397610d35565b6001600160a01b0316146113bd5760405162461bcd60e51b815260040161032e90611a03565b6001600160a01b0381166113e35760405162461bcd60e51b815260040161032e90611869565b6113ec8161144e565b50565b60008160008111801561140457506003548111155b6114205760405162461bcd60e51b815260040161032e90611d35565b60008381526004602052604090206001015442906114429062093a8090611dca565b119392505050565b3390565b600080546001600160a01b0383811673ffffffffffffffffffffffffffffffffffffffff19831681178455604051919092169283917f8be0079c531659141344cd1fd0a4f28419497f9722a3daafe3b4186f6b6457e09190a35050565b8280546114b790611e38565b90600052602060002090601f0160209004810192826114d9576000855561151f565b82601f106114f257805160ff191683800117855561151f565b8280016001018555821561151f579182015b8281111561151f578251825591602001919060010190611504565b5061152b92915061152f565b5090565b5b8082111561152b5760008155600101611530565b80356001600160a01b038116811461155b57600080fd5b919050565b60008083601f840112611571578182fd5b50813567ffffffffffffffff811115611588578182fd5b6020830191508360208285010111156115a057600080fd5b9250929050565b6000602082840312156115b8578081fd5b6115c182611544565b9392505050565b600080604083850312156115da578081fd5b6115e383611544565b946020939093013593505050565b600060208284031215611602578081fd5b81516115c181611e83565b60008060008060408587031215611622578182fd5b843567ffffffffffffffff80821115611639578384fd5b61164588838901611560565b9096509450602087013591508082111561165d578384fd5b5061166a87828801611560565b95989497509550505050565b600060208284031215611687578081fd5b5035919050565b600080600080600060a086880312156116a5578081fd5b853594506020860135935060408601359250606086013560ff811681146116ca578182fd5b915060808601356116da81611e83565b809150509295509295909350565b60008151808452815b8181101561170d576020818501810151868301820152016116f1565b8181111561171e5782602083870101525b50601f01601f19169290920160200192915050565b6001600160a01b0391909116815260200190565b6001600160a01b039384168152919092166020820152604081019190915260600190565b6001600160a01b03929092168252602082015260400190565b6001600160a01b039390931683526020830191909152604082015260600190565b60006001600160a01b0389168252876020830152866040830152856060830152841515608083015260e060a08301526117e160e08301856116e8565b82810360c08401526117f381856116e8565b9a9950505050505050505050565b901515815260200190565b60208082526035908201527f51414f20566f74696e6720456e67696e653a204c6f636b206f7074696f6e206160408201527f6e79206f6e6c7920626520302c2031206f7220322e0000000000000000000000606082015260800190565b60208082526026908201527f4f776e61626c653a206e6577206f776e657220697320746865207a65726f206160408201527f6464726573730000000000000000000000000000000000000000000000000000606082015260800190565b60208082526026908201527f51414f20566f74696e6720456e67696e653a20566f7465206973206e6f74206160408201527f63746976652e0000000000000000000000000000000000000000000000000000606082015260800190565b60208082526035908201527f51414f20566f74696e6720456e67696e653a2053656e64657220616c7265616460408201527f7920617474656e646564207468697320766f74652e0000000000000000000000606082015260800190565b6020808252604a908201527f51414f20566f74696e6720456e67696e653a204e6f7420656e6f75676820746f60408201527f6b656e20617070726f76656420746f20656e67696e6520746f207375626d697460608201527f2074686520766f74652e00000000000000000000000000000000000000000000608082015260a00190565b6020808252818101527f4f776e61626c653a2063616c6c6572206973206e6f7420746865206f776e6572604082015260600190565b60208082526035908201527f51414f20566f74696e6720456e67696e653a20546f6b656e206861766520616c60408201527f7265616479206265656e2077697468647261776e2e0000000000000000000000606082015260800190565b60208082526036908201527f51414f20566f74696e6720456e67696e653a20546f6b656e732061726520737460408201527f696c6c206c6f636b656420286f7074696f6e2031292e00000000000000000000606082015260800190565b60208082526049908201527f51414f20566f74696e6720456e67696e653a20546f6b656e732075736564206660408201527f6f72207468697320766f746520617265207374696c6c206c6f636b656420286f60608201527f7074696f6e2032292e0000000000000000000000000000000000000000000000608082015260a00190565b60208082526034908201527f51414f20566f746520456e67696e653a204e6f7420612076616c69642061747460408201527f656e64616e636520696420666f7220757365722e000000000000000000000000606082015260800190565b60208082526046908201527f51414f20566f74696e6720456e67696e653a204e6f7420656e6f75676820746f60408201527f6b656e20617070726f76656420746f20656e67696e6520746f20696e6974206160608201527f20766f74652e0000000000000000000000000000000000000000000000000000608082015260a00190565b60208082526034908201527f51414f20566f74696e6720456e67696e653a20416464726573735a65726f206360408201527f616e6e6f742062652072657761726420706f6f6c000000000000000000000000606082015260800190565b6020808252605a908201527f51414f20566f74696e6720456e67696e653a20546f6b656e206c6f636b696e6760408201527f2074696d65206e6565647320746f206265206265747765656e2031207765656b60608201527f20616e642031302079656172732028353230207765656b73292e000000000000608082015260a00190565b60208082526025908201527f51414f20566f746520456e67696e653a204e6f7420612076616c696420766f7460408201527f652069642e000000000000000000000000000000000000000000000000000000606082015260800190565b90815260200190565b9586526020860194909452604085019290925260ff16606084015215156080830152151560a082015260c00190565b60008219821115611ddd57611ddd611e6d565b500190565b600082611dfd57634e487b7160e01b81526012600452602481fd5b500490565b6000816000190483118215151615611e1c57611e1c611e6d565b500290565b600082821015611e3357611e33611e6d565b500390565b600281046001821680611e4c57607f821691505b6020821081141561135a57634e487b7160e01b600052602260045260246000fd5b634e487b7160e01b600052601160045260246000fd5b80151581146113ec57600080fdfea264697066735822122015540344054d7714313ae45d6cb349199fc3ca17aac7c73f67f664283177019664736f6c63430008010033",
  "linkReferences": {},
  "deployedLinkReferences": {}
}